:020000040000FA
:100000000C945D000C9428160C9401160C94850039
:100010000C9485000C9485000C9485000C9485004C
:100020000C9485000C9485000C9485000C9485003C
:100030000C9485000C9485000C9485000C9485002C
:100040000C94B7150C9485000C9475160C944F16EF
:100050000C9485000C9485000C9485000C9485000C
:100060000C9485000C94850000000008000201003B
:100070000003040700000000000000000000000072
:10008000250028002B0000000000240027002A0083
:10009000040404040404040402020202020203032E
:1000A0000303030301020408102040800102040836
:1000B0001020010204081020A71611241FBECFEF44
:1000C000D8E0DEBFCDBF12E0A0E0B1E0EAE6F8E3A1
:1000D00002C005900D92A631B107D9F723E0A6E141
:1000E000B2E001C01D92A133B207E1F710E0CDE507
:1000F000D0E004C02197FE010E94011BCC35D1073E
:10010000C9F70E9432170C94331C0C94000080E451
:1001100080937C0080917A00806480937A00809143
:100120007A0086FDFCCF8091780090917900089547
:100130008CBD9DBD0895FC01818D928D089508951B
:10014000CF93DF9390E0FC01EC55FF4F2491805753
:100150009F4FFC0184918823D1F090E0880F991F74
:10016000FC01EA57FF4FA591B491FC01E458FF4F01
:10017000C591D491623071F49FB7F8943C91822F6D
:10018000809583238C93E8812E2B28839FBFDF915A
:10019000CF9108958FB7F894EC912E2B2C938FBFAD
:1001A000F6CF3FB7F8948091250290912602A09156
:1001B0002702B091280226B5A89B05C02F3F19F051
:1001C0000196A11DB11D3FBFBA2FA92F982F8827D7
:1001D000BC01CD01620F711D811D911D42E0660FB2
:1001E000771F881F991F4A95D1F708958F929F9284
:1001F000AF92BF92CF92DF92EF92FF924B015C01E0
:100200000E94D1006B017C010E94D1006C197D0914
:100210008E099F09683E734081059105A8F321E08E
:10022000821A9108A108B10888EEC80E83E0D81E92
:10023000E11CF11C81149104A104B10429F7FF9081
:10024000EF90DF90CF90BF90AF909F908F900895E8
:100250002FB7F894609121027091220280912302BD
:10026000909124022FBF08950895DC01ED91FC9137
:100270000190F081E02D0994AF92BF92CF92DF926E
:10028000EF92FF920F931F93CF93DF936C017B014B
:100290008B01040F151FEB015E01AE18BF08C017DC
:1002A000D10759F06991D601ED91FC910190F0814F
:1002B000E02DC6010995892B79F7C501DF91CF9112
:1002C0001F910F91FF90EF90DF90CF90BF90AF9074
:1002D0000895FC01538D448D252F30E0842F90E04C
:1002E000821B930B541710F0CF9608950197089531
:1002F000FC01918D828D981761F0A28DAE0FBF2FFA
:10030000B11D5D968C91928D9F5F9F73928F90E04F
:1003100008958FEF9FEF0895FC01918D828D9817BE
:1003200031F0828DE80FF11D858D90E008958FEFFB
:100330009FEF0895FC01918D228D892F90E0805CC4
:100340009F4F821B91098F73992708958EE492E045
:100350000E949A0121E0892B09F420E0822F089560
:1003600080E090E0892B29F00E94A60181110C9475
:1003700000000895FC01A48DA80FB92FB11DA35A48
:10038000BF4F2C91848D90E001968F739927848FB5
:10039000A689B7892C93A089B1898C9183708064D8
:1003A0008C93938D848D981306C00288F389E02D79
:1003B00080818F7D80830895EF92FF920F931F932A
:1003C000CF93DF93EC0181E0888F9B8D8C8D981308
:1003D0001AC0E889F989808185FF15C09FB7F89414
:1003E000EE89FF896083E889F98980818370806460
:1003F00080839FBF81E090E0DF91CF911F910F91AB
:10040000FF90EF900895F62E0B8D10E00F5F1F4FB9
:100410000F731127E02E8C8D8E110CC00FB607FCC8
:10042000FACFE889F989808185FFF5CFCE010E9456
:10043000BA01F1CFEB8DEC0FFD2FF11DE35AFF4F09
:10044000F0829FB7F8940B8FEA89FB8980818062E4
:10045000CFCFCF93DF93EC01888D8823B9F0AA89A1
:10046000BB89E889F9898C9185FD03C0808186FD6F
:100470000DC00FB607FCF7CF8C9185FFF2CF8081BE
:1004800085FFEDCFCE010E94BA01E9CFDF91CF9178
:100490000895FC0120812EBD9B012150310941F0BE
:1004A00051810DB407FEFDCF4EB55EBD4193F5CF32
:1004B00061507109860F971F0DB407FEFDCF2EB551
:1004C000FC0120830895E0911E02F0911F028081BB
:1004D00090911D02892B80830895E0911E02F09176
:1004E0001F02908180911D02809589238083089549
:1004F0008EBD00000DB407FEFDCF8EB50895AF92FE
:10050000BF92CF92DF92EF92FF920F931F93CF9300
:10051000DF93CDB7DEB728970FB6F894DEBF0FBED6
:10052000CDBF8C017B016A0180914D028333E1F4E0
:100530005801A40EB51EA016B10609F46FC00E94A2
:100540006D0280EF0E947802812F0E947802802F36
:100550000E9478020F5F1F4FF70181917F010E9477
:1005600078020E946302E7CF5B01A40EB51E8433BC
:10057000C1F40E946D0219830A838D2D80688B83DC
:10058000CC8264E070E0CE0101960E944902AE1474
:10059000BF0409F441C0F70181917F010E947802F4
:1005A000F6CF0E946D020F3F110509F028F4198261
:1005B0000A8384E08B830CC017FD17C019820A835D
:1005C00033E0169507953A95E1F7007E0C600B83B2
:1005D00086E0C816D104A0F5F701DE011496EA15ED
:1005E000FB0599F081918D93FACFC80126E096958D
:1005F00087952A95E1F7807E19830A830115104CAF
:1006000010F48461D7CF8C61D5CFB6016D5F7F4F79
:10061000CE0101960E9449020E946302C6012896FB
:100620000FB6F894DEBF0FBECDBFDF91CF911F9103
:100630000F91FF90EF90DF90CF90BF90AF90089513
:1006400063E070E0CE0101960E944902F7018191BA
:100650007F010E947802AE14BF04C1F7DDCFCF93B3
:10066000DF931F92CDB7DEB7898341E050E0BE0132
:100670006F5F7F4F90E080E00E947F020F90DF91DC
:10068000CF91089590E020914D02233339F40C96D8
:10069000982F990F990F990F80E008954896F8CFF9
:1006A000DA01E0911C02F0E0FE2FEE27E60FF71FC3
:1006B00090E0982F8827A901BD018E0F9F1F0C94F1
:1006C0007F02CF93DF9300D0CDB7DEB779836A8303
:1006D00022E030E0AE014F5F5F4F60E170E00E94CA
:1006E00050030F900F90DF91CF910895CF93DF9338
:1006F00000D0CDB7DEB779836A8322E030E0AE0167
:100700004F5F5F4F64E070E00E9450030F900F90C6
:10071000DF91CF910895CF93DF931F92CDB7DEB7CE
:1007200020911C0230E0322F2227260F371F90E045
:10073000982F8827498341E050E0BE016F5F7F4FCB
:10074000820F931F0E947F020F90DF91CF91089537
:10075000CF93DF931F92CDB7DEB76983DC01ED91B4
:10076000FC910280F381E02D41E050E0BE016F5F1B
:100770007F4F09950F90DF91CF910895CF93DF932D
:100780001F92CDB7DEB76983DC01ED91FC91028049
:10079000F381E02D41E050E0BE016F5F7F4F09958E
:1007A0000F90DF91CF910895FC019485FB01848522
:1007B000981303C081E0943008F080E00895CF934F
:1007C000DF931F92CDB7DEB76983DC01ED91FC9119
:1007D0000280F381E02D41E050E0BE016F5F7F4F6A
:1007E00009950F90DF91CF910895FC017687658779
:1007F0000895DC01ED91FC9102A0F3A1E02D099593
:1008000091E089270895862F089581E0862708952D
:1008100021E0FC018485843008F020E0822F0895D7
:1008200008950895FF920F931F93CF93DF93EB01E9
:10083000FC01178A168A2A81211109C02B812111F6
:1008400006C02C81211103C02D81222301F1411505
:100850005105E9F08A01FC01F08C80E591E00E94ED
:100860009800AE014E5F5F4F24E030E06CE070E036
:100870008F2D0E945003B8018F2D0E94610381E0EB
:1008800090E0DF91CF911F910F91FF90089580E04C
:10089000F7CFFC01848595850895FC0184899589AD
:1008A00008952EE831E0FC0131832083FB0140896B
:1008B000518962897389FC01428353836483758300
:1008C0000895DC01ED91FC91048CF58DE02D0994E7
:1008D000089590E080E00895FB0101900020E9F781
:1008E0003197AF01461B570BDC01ED91FC91028063
:1008F000F381E02D09948F929F92AF92BF92EF9275
:10090000FF920F931F93CF93DF93CDB7DEB7A197DD
:100910000FB6F894DEBF0FBECDBF7C01FA01CB014C
:1009200019A2223008F42AE08E010F5D1F4F822E9B
:10093000912CB12CA12CBF01A50194010E94A318F8
:10094000F901CA016A300CF5605DD8016E938D0122
:10095000232B242B252B79F790E080E0109721F0B2
:10096000BD01C7010E946C04A1960FB6F894DEBFCA
:100970000FBECDBFDF91CF911F910F91FF90EF90F0
:10098000BF90AF909F908F900895695CDECF8F925B
:100990009F92AF92BF92CF92DF92EF92FF920F930E
:1009A0001F93CF93DF937C018B016C0182E0C80E13
:1009B000D11C4701E5E08E0E911CD0E0C0E0F601AD
:1009C00041916F0150E070E060E02AE0C8010E94B0
:1009D0007B045C016EE2C8010E9435018A0D9B1DFB
:1009E000C80FD91FC814D90451F7F701458150E049
:1009F00070E060E02AE0C8010E947B048C0F9D1F1C
:100A0000DF91CF911F910F91FF90EF90DF90CF90EA
:100A1000BF90AF909F908F9008952F923F924F92EA
:100A20005F926F927F928F929F92AF92BF92CF927E
:100A3000DF92EF92FF921F93CF93DF93EC016A0155
:100A40007B01722EAB019601CB01B6010E94FC1A0C
:100A500060EA71E0811126C046015701E894B7F8B9
:100A60002FEF3FEF4FE75FE7C501B4010E94FC1A8B
:100A700081110CC02FEF3FEF4FE75FE7C501B401D5
:100A80000E94321964EA71E0181664F02FEF3FEF0C
:100A90004FE75FE4C701B6010E948A1A1816B4F442
:100AA00068EA71E0CE01DF91CF911F91FF90EF9046
:100AB000DF90CF90BF90AF909F908F907F906F907E
:100AC0005F904F903F902F900C946C042FEF3FEF6E
:100AD0004FE75FECC701B6010E94321987FDE0CFF6
:100AE00020E030E0A901C701B6010E943219312C83
:100AF000212C87FF09C06DE2CE010E9435011C0147
:100B0000F7FAF094F7F8F09410E060E070E080E01D
:100B10009FE3711641F020E030E040E251E40E9492
:100B200037191F5FF6CFA70196010E94C6182B0147
:100B30003C010E94A9194B015C012AE0BC01A401FF
:100B4000CE010E947B047C01E20CF31C1123C1F155
:100B5000C501B4010E94D8199B01AC01C301B201C7
:100B60000E94C5184B015C016EE2CE010E94350166
:100B7000E80EF91E115020F120E030E040E251E48F
:100B8000C501B4010E948F1A2B013C010E94A919D2
:100B90004B01B12CA12C2AE0B501A401CE010E9489
:100BA0007B04E80EF91EC501B4010E94D8199B010F
:100BB000AC01C301B2010E94C5184B015C01DACF40
:100BC000C701DF91CF911F91FF90EF90DF90CF9001
:100BD000BF90AF909F908F907F906F905F904F905D
:100BE0003F902F9008950F931F93CF93DF93EC01C5
:100BF0000E946C048C016CEA71E0CE010E946C04CE
:100C0000800F911FDF91CF911F910F910895CF9287
:100C1000DF92EF92FF92CF93DF936FEA71E08EE461
:100C200092E00E94F30510921602109217021092A1
:100C300018021092190210920401109205011092EC
:100C4000060110920701C4E6D0E00E948700C09020
:100C50000401D0900501E0900601F0900701BC016D
:100C6000990F880B990B0E94DA1920E030E040EAD6
:100C700050E40E948F1A20E030EC4FE754E40E94C9
:100C80003719A70196010E94C6186093040170935A
:100C9000050180930601909307012197B1F66091B9
:100CA000040170910501809106019091070120E0F7
:100CB00030E048EC52E40E943719609304017093CD
:100CC0000501809306019093070162E070E080E0E7
:100CD00090E00E94F6006BEB71E08EE492E00E94DF
:100CE0006C044091040150910501609106017091DE
:100CF000070122E08EE492E00E940D056CEA71E0AB
:100D00008EE492E0DF91CF91FF90EF90DF90CF9053
:100D10000C946C04AF92BF92CF92DF92EF92FF924D
:100D20000F931F93CF93DF9300D000D0CDB7DEB7E2
:100D30008C016B017A0180914D028333E9F45B01F0
:100D40006801C40ED51EC016D106A9F10E946D021D
:100D50008FE00E947802812F0E947802802F0E94EB
:100D600078020F5F1F4F80E00E947802F5018193A7
:100D70005F010E946302E7CF843369F50E946D0230
:100D800019830A838F2D8F778B83EC8264E070E068
:100D9000CE0101960E944902A70170E060E0C60101
:100DA0000E942C1CE114F10421F0B701C6010E943D
:100DB00049020E946302C7010F900F900F900F909D
:100DC000DF91CF911F910F91FF90EF90DF90CF9027
:100DD000BF90AF9008950E946D020F3F110509F07A
:100DE00030F419820A831B8263E070E0D1CF17FDD3
:100DF0000BC019820A8333E0169507953A95E1F7FF
:100E0000007E08600B83F0CFC80126E09695879599
:100E10002A95E1F7807E19830A830115104C18F496
:100E200080618B83E1CF8861FCCFCF93DF931F92EA
:100E3000CDB7DEB720911C0230E0322F2227260FDB
:100E4000371F90E0982F882741E050E0BE016F5F88
:100E50007F4F820F931F0E948A0689810F90DF9136
:100E6000CF910895CF93C82F462F61E070E00E9484
:100E70008B0361E070E08C2F0E9415078111F9CF80
:100E8000CF910895CF93C82F80E591E00E949800FC
:100E900068E070E08C2FCF910C943207CF93C82F6D
:100EA00080E591E00E94980060E170E08C2FCF9186
:100EB0000C943207CF93DF93EC01888D843020F4BB
:100EC0000E944E0784E0888FDF91CF91089563E000
:100ED00070E00C941507CF93C82F80E591E00E9435
:100EE00098008C2FCF910C946707EF92FF920F938D
:100EF0001F93CF937C0105E412E0C0E0F80121913B
:100F000031918F01F701848195812817390729F0E4
:100F1000CF5FC43099F780E006C08C2F0E946B072A
:100F20008431B1F781E0CF911F910F91FF90EF9045
:100F30000895CF93DF93EC018C858430D0F40E9428
:100F40006B07843189F0882379F0883169F021E0DA
:100F50008C3159F4E881F9810084F185E02DCE01CE
:100F6000099521E0892B09F420E0822FDF91CF91B0
:100F7000089580E0FBCFCF92DF92EF92FF92CF9364
:100F8000DF93EC018C85843068F40E9442070E9454
:100F900028016B017C018C850E946B07811109C0BF
:100FA00084E08C87DF91CF91FF90EF90DF90CF901E
:100FB000089561E070E080E090E00E94F6000E94F9
:100FC0002801AB01BC014C195D096E097F098D85B3
:100FD0009E85B0E0A0E0481759076A077B07D8F262
:100FE0008C850E944E07DCCFCF93FC01C08D80E53D
:100FF00091E00E94980060E270E08C2F0E9432071E
:1010000062E070E08C2F0E94150784FD16C062E03C
:1010100070E08C2F0E94150783FF0AC048E162E050
:1010200070E08C2F0E948B0380E090E0CF910895B8
:1010300080E591E00E949800E3CF40E162E070E03B
:101040008C2F0E948B0381E0F0CFCF93DF931F9210
:10105000CDB7DEB741E050E0BE016F5F7F4F90E05B
:1010600080E00E948A0689810F90DF91CF910895D8
:10107000CF93DF93C4E1D0E00E942508882361F07C
:1010800061E070E080E090E00E94F6002197A1F717
:1010900080E0DF91CF91089581E0FBCF1F93CF9344
:1010A000DF931F92CDB7DEB7182F80E591E00E9445
:1010B0009800812F0E94420327E0129FF001112423
:1010C000E75DFD4F22813381377041E050E0BE0182
:1010D0006F5F7F4F820F931F0E948A0689810F9056
:1010E000DF91CF911F910895FC01808D843040F4F1
:1010F000218D328D232B21F00E944E0890E008951F
:101100008FEF9FEF0895CF93DF93FC012485243068
:1011100028F08FEF9FEFDF91CF910895EC010190C0
:10112000F081E02D0084F185E02D0995892B89F36C
:101130008C850E944E0890E0EECFDA01E0911C020F
:10114000F0E0FE2FEE27E60FF71F90E0982F88279C
:10115000A901BD018E0F9F1F0C948A068F929F924A
:10116000AF92BF92CF92DF92EF92FF921F93CF93F5
:10117000DF93CDB7DEB72C970FB6F894DEBF0FBE66
:10118000CDBF20914D0214E0222329F16B017C0197
:1011900080E591E00E9498005E0127E0A20EB11C5C
:1011A000450110E0812F0E946707F40181934F01F0
:1011B000882349F11F5F1430A9F710E0F5018191F0
:1011C0005F018D31D9F08831C9F08A518230B0F099
:1011D0001F5F143099F7812F2C960FB6F894DEBF5D
:1011E0000FBECDBFDF91CF911F91FF90EF90DF90A9
:1011F000CF90BF90AF909F908F90089560E170E086
:10120000812F0E943207A12EB12CF501EE0FFF1F96
:10121000EB5BFD4F1182108283EE93E00197F1F7B3
:1012200042E870E060E0812F0E948B034FEF62E0A4
:1012300070E0812F0E948B03B601C114D10491F498
:10124000809108019091090101968115F0EC9F07AA
:1012500008F45CC090930901809308016091080133
:1012600070910901812F0E94760386E0E0E1F1E0B0
:10127000DE01119601900D928A95E1F7F7018381C5
:101280008F778C8384818D8385818E83A7014E5FC8
:101290005F4F24E030E06CE070E0812F0E9450034B
:1012A000B601812F0E94610326E030E0AE014F5F5E
:1012B0005F4F66E070E0812F0E94500361E070E0B4
:1012C000812F0E94320727E02A9DC0012B9D900D9F
:1012D00011249C01275D3D4F7901F9011182108293
:1012E00022E030E0AE01455F5F4F68E270E0812FA1
:1012F0000E949D088B859C85982789279827F70150
:101300009383828316821582148265CF80E090ECED
:10131000A1CFCF92DF92EF92FF920F931F93CF93C3
:10132000DF9300D000D000D0CDB7DEB78C016B01C9
:101330007A01FC01808D843010F40E944E078EE803
:1013400091E09A838983F60182819381A481B5819A
:101350008B839C83AD83BE83B701CE0101960E942F
:10136000AE08F801808F8430A0F4F586E486128EF2
:10137000118E81E026960FB6F894DEBF0FBECDBF6A
:10138000DF91CF911F910F91FF90EF90DF90CF9061
:10139000089580E0EFCFAF92BF92CF92DF92EF92AD
:1013A000FF920F931F93CF93DF9300D000D000D014
:1013B000CDB7DEB7082F6B0180E591E00E94980061
:1013C0009E012F5F3F4F7901590110E0812F0E944C
:1013D0006707F50181935F01882341F11F5F143096
:1013E000A9F710E0F70181917F018D31D1F08831AB
:1013F000C1F08A518230A8F01F5F143099F7812F15
:1014000026960FB6F894DEBF0FBECDBFDF91CF9109
:101410001F910F91FF90EF90DF90CF90BF90AF9012
:10142000089560E170E0812F0E943207E12EF12CD7
:10143000F701EE0FFF1FEB5BFD4F1182108283EE71
:1014400093E00197F1F7402F70E060E0812F0E9458
:101450008B034FEF62E070E0812F0E948B03B60197
:10146000CD2889F480910801909109010196811598
:10147000F0EC9F0798F19093090180930801609127
:10148000080170910901812F0E94760361E070E0EC
:10149000812F0E94320727E02E9DC0012F9D900DC5
:1014A00011249C01275D3D4F7901F90111821082C1
:1014B00022E030E0AE014B5F5F4F68E270E0812FC9
:1014C0000E949D088D819E81982789279827F70182
:1014D0009383828316821582148291CF80E090ECF0
:1014E000CACFCF92DF92EF92FF921F93CF93DF93F9
:1014F000EC017B016A018C85843048F40E946B0703
:10150000882319F08C850E94420784E08C87F701BC
:1015100082819381A481B5810097A105B10551F421
:1015200090E080E0DF91CF911F91FF90EF90DF90EE
:10153000CF9008958F3F9F4FAF4FBF4F89F380915A
:101540004D02811103C084E08C87EACF70E060E037
:1015500081E20E94CB09182F8C87843008F780E540
:1015600091E00E949800A7014E5F5F4F24E030E0B9
:101570006CE070E0812F0E945003B601812F0E9421
:10158000610364E070E0812F0E9432070E9428010D
:101590006B017C018C850E946B07873109F18C31CE
:1015A000F9F0882309F4BCCF0E942801AB01BC01EB
:1015B0004C195D096E097F098D859E85B0E0A0E01C
:1015C00084179507A607B70738F061E070E080E060
:1015D00090E00E94F600DECF8C850E944E07B3CFCC
:1015E00081E090E09FCF0F931F93CF93DF93EC01A7
:1015F0008B01888D843010F40E944E0780914D023B
:10160000811107C094E0988FDF91CF911F910F91C6
:101610000895B80182E00E94CB09888F843030F4AD
:101620001D870C871A8E198E81E0EECF80E0ECCFFB
:101630000F931F93CF9320914D02222349F18C01E8
:10164000FC016481758181E20E94CB09C82F84303E
:10165000F8F480E591E00E9498008C2F0E946707C3
:10166000833131F08C2FCF911F910F910C94420751
:1016700062E070E08C2F0E943207F801848195812E
:10168000EC2FF0E0EE0FFF1FEB5BFD4F91838083AB
:10169000CF911F910F9108957F928F929F92AF9259
:1016A000BF92CF92DF92EF92FF920F931F93CF934F
:1016B000DF9300D0CDB7DEB7782E8B014A015901F8
:1016C00022E030E0AE014F5F5F4F64E270E00E94C5
:1016D0009D08E980FA80FE24EF24FE24E00EF11E2E
:1016E0009701377040914D02072D10E0433309F008
:1016F00042C0085F1F4F102F0027110F110F110F4D
:10170000C901800F911F4733C9F1A9014A0D5B1D23
:101710004130584098F160E078E06B01C21AD30A7A
:10172000A601B4010E947F02A5014C195D09B40114
:101730006C0D7D1DC8010E947F02EA0CFB1CF98222
:10174000EA8222E030E0AE014F5F5F4F64E270E07A
:10175000872D0E9450030F900F90DF91CF911F9122
:101760000F91FF90EF90DF90CF90BF90AF909F9040
:101770008F907F900895005F1F4FBDCFA501B401EA
:10178000DACFEF92FF921F93CF93DF9300D0CDB7C4
:10179000DEB7182F22E030E0AE014F5F5F4F60E20E
:1017A00070E00E949D08E980FA80FE24EF24FE2468
:1017B00022E030E0AE014F5F5F4F60E270E0812FCA
:1017C0000E949D0889819A81982789279827E81681
:1017D000F90689F487E0189FF0011124E75DFD4FB9
:1017E000F582E482C7010F900F90DF91CF911F9196
:1017F000FF90EF9008957C01DBCF1F93CF93DF9391
:10180000182F80E591E00E949800812F0E94C10B63
:10181000EC01812F0E946707873121F08C3111F094
:10182000D0E0C0E0CE01DF91CF911F910895CF931A
:10183000DF93EC018C85843060F40E946B07873164
:1018400011F08C3131F48C850E94FD0B811598408C
:1018500088F3DF91CF910895FC018485843010F4E2
:101860000C94FD0B90E080E00895CF92DF92EF9210
:10187000FF921F93CF93DF93182F7B01EA01413032
:10188000584010F0C0E0D8E080E591E00E94980058
:10189000812F0E94C10B6C01812F0E946707873145
:1018A00011F08C3121F5CC16DD0670F380E591E066
:1018B0000E9498009E01A70170E060E0812F0E94C5
:1018C0004C0B60E270E0812F0E94320762E070E012
:1018D000812F0E94150784FD0DC0812F0E9467078C
:1018E0008823B9F080E591E00E949800EFCFD0E026
:1018F000C0E0DCCF40E162E070E0812F0E948B030A
:10190000CE01DF91CF911F91FF90EF90DF90CF90AC
:101910000895D0E0C0E0F4CF0F931F93CF93DF93EF
:101920008C01EA01FC018485843048F40E94350C66
:10193000892B39F481E090E0F80193838283D0E031
:10194000C0E0CE01DF91CF911F910F9108959F923A
:10195000AF92BF92CF92DF92EF92FF920F931F93BD
:10196000CF93DF938C015B01942EE52EFC01C6889A
:10197000D788F08C80E591E00E9498008F2D0E941E
:10198000C10BC92DDE2D8C179D0708F4EC019E01BB
:10199000A501B6018F2D0E944C0BF801868997890D
:1019A0008C0F9D1F978B868BCE01DF91CF911F915E
:1019B0000F91FF90EF90DF90CF90BF90AF909F90EE
:1019C0000895FF920F931F93CF93DF9300D0CDB76D
:1019D000DEB7F82E22E030E0AE014F5F5F4F66E2E7
:1019E00070E00E949D0809811A81102701271027A5
:1019F00022E030E0AE014F5F5F4F66E270E08F2D76
:101A00000E949D0889819A8198278927982708171D
:101A1000190749F4C8010F900F90DF91CF911F91E2
:101A20000F91FF9008958C01E3CF1F93CF93DF9325
:101A3000182F87E0189FE0011124C75DDD4F8881D2
:101A40009981009761F480E591E00E949800812FD0
:101A50000E94E10C2E81821B910999838883DF917A
:101A6000CF911F910895AF92BF92CF92DF92EF92E4
:101A7000FF920F931F93CF93DF93EC017B01809133
:101A80004D02811120C01B821A8288EE93E0A0E0F3
:101A9000B0E08C839D83AE83BF8380E291E0998325
:101AA000888384E08C8788EE93E09E878D87CE01C3
:101AB000DF91CF911F910F91FF90EF90DF90CF902A
:101AC000BF90AF90089585E4C82E82E0D82E10E034
:101AD00094E0B92EA12CD6012D913D916D01F70115
:101AE000848195812817390791F4812F0E946B0713
:101AF000082F873111F08C3139F5812F0E94150D97
:101B0000892B59F50C3119F4812F0E9442071F5F70
:101B1000143009F7A11008C0D701ED91FC910084A1
:101B2000F185E02DC70109951B821A8288EE93E0AA
:101B3000A0E0B0E08C839D83AE83BF8380E291E020
:101B400099838883BC86AFCF843149F08111DFCF80
:101B5000F601329711821082DACFB12ED8CFAA24A3
:101B6000A394D5CF8F929F92AF92BF92CF92DF92E4
:101B7000EF92FF921F93CF93DF93CDB7DEB72F97EE
:101B80000FB6F894DEBF0FBECDBF5C014B017A01EA
:101B900080914D028823A1F1B501CE0101960E94EA
:101BA000330D85E4C82E82E0D82E10E0F601219195
:101BB00031916F01F501848195812817390751F41E
:101BC000812F0E946B07873129F4A701B401812F6F
:101BD0000E94350C1F5F143049F7C7012F960FB6CE
:101BE000F894DEBF0FBECDBFDF91CF911F91FF9064
:101BF000EF90DF90CF90BF90AF909F908F9008951F
:101C0000F12CE12CEACFFC018485843010F40C9493
:101C1000150D90E080E008954F925F927F928F9231
:101C20009F92AF92BF92CF92DF92EF92FF920F936B
:101C30001F93CF93DF9300D0CDB7DEB7782E6B0123
:101C40004A01A82EB12C27E0829FC0011124FC017B
:101C5000E75DFD4F7F010081118180E591E00E94E9
:101C600098000815190554F4872D0E94E10CF7011E
:101C700026818C01021B11091183008301151105B6
:101C800019F5872D0E946707843159F0882349F0A0
:101C900001E010E08C3111F410E000E011950195A5
:101CA0001109C8010F900F90DF91CF911F910F91F3
:101CB000FF90EF90DF90CF90BF90AF909F908F906C
:101CC0007F905F904F900895801691060CF48401E8
:101CD00087E08A9DF0018B9DF00D1124E75DFD4F9B
:101CE000E280F380C114D10451F12701F7E05F22B3
:101CF000872D0E944203840D951D20914D022733AC
:101D000009F453C09801240D351D2130384008F4E2
:101D10004CC020E038E0490184189508A401B601C0
:101D20000E948A062601480C591C6801C818D90867
:101D3000872D0E944203A601B2010E948A06E00E8E
:101D4000F11E87E08A9DF0018B9DF00D1124E75D67
:101D5000FD4FF382E28220813181201B310B3183E0
:101D600020838681800F912F911D8A3F910510F469
:101D7000232BF1F487E08A9DF0018B9DF00D112457
:101D8000E75DFD4F1682F982EA8222E030E0AE0183
:101D90004F5F5F4F68E270E0872D0E94500360E460
:101DA00070E0872D0E9432077CCFA801B601C5CF15
:101DB000868377CFCF93DF93FC01218D328D211560
:101DC000310529F48FEF9FEFDF91CF910895EC015A
:101DD000808D4217530708F0A9010E940C0E1816B7
:101DE000190684F7298D3A8D281B390B3A8F298FD4
:101DF000EBCF0F931F93CF93DF931F92CDB7DEB737
:101E0000FC01218D328D232B41F48FEF9FEF0F903A
:101E1000DF91CF911F910F9108958C0141E050E027
:101E2000BE016F5F7F4FFC01808D0E940C0E181663
:101E300019065CF7F801818D928D0197928F818F41
:101E4000898190E0E4CFCF93DF931F92CDB7DEB7C7
:101E500041E050E0BE016F5F7F4FFC0184850E942E
:101E60000C0E1816190634F4898190E00F90DF915A
:101E7000CF9108958FEF9FEFF9CFFC0184858430D7
:101E800010F40C940C0E90E080E008950F931F93D3
:101E9000CF93DF9300D0CDB7DEB7FC01248524308B
:101EA000E0F48C0180E591E00E94980022E030E0AF
:101EB000AE014F5F5F4F60E170E0F80184850E94E2
:101EC0009D0889819A819827892798270F900F90DC
:101ED000DF91CF911F910F91089590E080E0F6CFB0
:101EE0000F931F93CF93DF9300D0CDB7DEB7FC01E4
:101EF00024852430E0F48C0180E591E00E94980074
:101F000022E030E0AE014F5F5F4F64E070E0F80127
:101F100084850E949D0889819A819827892798271E
:101F20000F900F90DF91CF911F910F91089590E046
:101F300080E0F6CF8F929F92AF92BF92CF92DF92C6
:101F4000EF92FF920F931F93CF93DF93CDB7DEB73E
:101F5000C454D1090FB6F894DEBF0FBECDBF6C01DB
:101F6000FB0182819381A481B58123968CAF9DAFC3
:101F7000AEAFBFAF239721E023962FAF23972396D1
:101F80004CAD5DAD6EAD7FAD239749AF5AAF6BAF32
:101F90007CAF8BAB9CABADABBEAB8DA79EA7AFA709
:101FA000B8AB28AB4DA55EA56FA578A94B8F5C8F0C
:101FB0006D8F7E8F2CAF49AD5AAD6BAD7CAD49A313
:101FC0005AA36BA37CA38FA398A7A9A7BAA74EE88F
:101FD00051E05A8349833FEF3B833C833D831E821C
:101FE00058874F832E8F8B8C9C8CAD8CBE8C8986B2
:101FF0009A86AB86BC862CA309A11AA12BA13CA171
:102000000F87188B298B3A8B5C8B4B8B8D8B9E8B20
:10201000AF8BB88F80911B028111CFC060E372E05B
:1020200080E090E00E94F600BFB6F8940AE910E064
:102030004EEAE42E40E0F42E80911A02811145C050
:10204000F8018491F7019491E82FF0E0EE0FFF1F63
:10205000EA57FF4FA591B4918C91982321F5E2E7BF
:10206000F0E08491F7019491F80124912223D9F0B2
:10207000882359F0833009F4E0C008F0D3C08130E0
:1020800009F4E1C0823009F4E2C0E22FF0E0EE0F83
:10209000FF1FE458FF4FA591B4918FB7F8942C918E
:1020A000922B9C938FBF61E08AE00E94A0008CB5C8
:1020B00080618CBD8CB580648CBD61E08DE00E9438
:1020C000A00061E08BE00E94A00080911A028F5F67
:1020D00080931A02BFBEF8010491E02FF0E0EE0FEA
:1020E000FF1FE458FF4F8591949190931F028093B6
:1020F0001E02F701E490E0921D0261E08AE00E9476
:10210000A0000E94630280E591E00E94980084E3B1
:1021100080934D0280E80E942F030E943808882394
:1021200009F4A2C088E00E942F030E94250888308D
:1021300009F09AC080E10E942F030E942508803197
:1021400009F092C080E00E942F030E942508182FFA
:1021500081118AC041E050E0BE016D5B7F4F8FE18D
:1021600090E00E948A0624968FAD2497833009F070
:102170007BC080E480931C0242E06EE170E0812F1E
:102180000E948B0342E06FE170E0812F0E948B037D
:102190001F5F143089F740E06EE170E0812F0E94EC
:1021A0008B0340E06FE170E0812F0E948B031F5F83
:1021B000183089F781E080931B0280E591E00E944E
:1021C000980046E050E0B60189E090E00E947F026E
:1021D00044E050E0BE016B5E7F4F8FE090E00E94D4
:1021E0007F0244E050E0BE01675F7F4F81E090E0F6
:1021F0000E947F0244E050E0BE016D5F7F4F85E0AA
:1022000090E00E947F0281E08A8B8F859889A9895E
:10221000BA8980930B0390930C03A0930D03B093A2
:102220000E0391C08730B1F08830D1F0843009F0CE
:102230002CCF809180008F7D03C0809180008F77AC
:102240008093800022CF84B58F7784BD1ECF84B564
:102250008F7DFBCF8091B0008F778093B00015CF3A
:102260008091B0008F7DF9CF87E380934D0280E8A5
:102270000E942F030E943808882339F188E00E94C9
:102280002F030E942508883001F580E10E942F036A
:102290000E942508182F8031C1F480E00E942F038E
:1022A0000E942508811111C041E050E0BE016D5B24
:1022B0007F4F89E390E00E948A0624968FAD249791
:1022C000843019F410931C0275CF83E380934D0280
:1022D00080E80E942F030E943808882391F180E152
:1022E0000E942F030E942508803159F582E10E9447
:1022F0002F030E942508823121F580E00E942F03E0
:102300000E94250881111DC084E080931C0215E500
:1023100025961FAF259741E050E0BE016C5B7F4FD3
:102320008BE190E00E947F0224961FAF249741E04A
:1023300050E0BE016D5B7F4F8AE190E00E947F021A
:1023400039CF10924D02CC5BDF4F0FB6F894DEBF51
:102350000FBECDBFDF91CF911F910F91FF90EF90F6
:10236000DF90CF90BF90AF909F908F9008950F9384
:102370001F93CF93DF93CDB7DEB728970FB6F894AE
:10238000DEBF0FBECDBF8C01D80159964D915C9137
:102390005A974115510551F0ED91FC91048CF58D42
:1023A000E02D70E060E0C8010995EECFF801808D66
:1023B0000E94150D892BB1F148E050E0BE016F5F1E
:1023C0007F4FD80158968C910E940C0E1816190652
:1023D000F4F4D801509684E0FE01319601900D92FC
:1023E0008A95E1F78D8190E0982F88272E81820FC2
:1023F000911DF801958B848B8F81282F30E0322F2F
:1024000022278885820F932F911D928F818F289686
:102410000FB6F894DEBF0FBECDBFDF91CF911F91F5
:102420000F91089590E080E0F2CF4F925F926F920B
:102430007F928F929F92AF92BF92CF92DF92EF9254
:10244000FF920F931F93CF93DF93CDB7DEB76397C0
:102450000FB6F894DEBF0FBECDBF7C016B013A0111
:10246000FB0120E090E080E06AE03191332309F441
:1024700061C040ED430F4A3008F04DC0689FA00195
:10248000699F500D1124CA01C097830F911D37FD1C
:102490009A958F3F910549F340F3F70142815381AB
:1024A000648175818091170390911803A09119039D
:1024B000B0911A03481759076A077B0709F40DC240
:1024C0008701085F1F4F0E9428016F7077277C5F8C
:1024D000C8010E94F30A813009F004C28EE891E03D
:1024E0009A838983F70182819381A481B5818B834B
:1024F0009C83AD83BE8345E350E0BE016F5F7F4F99
:10250000C8010E941204892BA9F5D12CC12CC80145
:102510000E945A0717C03E3209F0BFCF233009F49A
:10252000BCCFD301A20FB11D12968C932F5F90E008
:1025300080E09BCF233009F0B0CFF3018583CC241A
:10254000C394D12CC60163960FB6F894DEBF0FBEBC
:10255000CDBFDF91CF911F910F91FF90EF90DF9052
:10256000CF90BF90AF909F908F907F906F905F9033
:102570004F9008950E942801F7017783668342E017
:1025800050E0B7016A5F7F4FC8010E94A70C81E04D
:1025900090E09A83898342E050E0BE016F5F7F4FF5
:1025A000C8010E94A70C80E091E09A83898342E0F1
:1025B00050E0BE016F5F7F4FC8010E94A70C1A82D6
:1025C000198242E050E0BE016F5F7F4FC8010E9458
:1025D000A70C42E050E0BE016F5F7F4FC8010E9430
:1025E000A70C42E050E0BE016F5F7F4FC8010E9420
:1025F000A70C5601F6018081882301F16501F601DF
:1026000081912F01882311F08E32B1F446018A188E
:102610009B081814190474F48D8641E050E0BE0143
:10262000635F7F4FC8010E94A70CA401B501C801D8
:102630000E94A70C5201DECF6201E1CF1D8641E06E
:1026400050E0BE01635F7F4FC8010E94A70CC12C00
:10265000DD24D394DA82C98242E050E0BE016F5F8C
:102660007F4FC8010E94A70CDA82C98242E050E085
:10267000BE016F5F7F4FC8010E94A70CC8010E9476
:10268000F407892B09F441CFF3E0AF2EB12C2301DD
:1026900022E0420E511CD4C0F70142815381648173
:1026A0007581808D918DA28DB38D481759076A076A
:1026B0007B0709F008C1848D958DC59709F003C18A
:1026C00081A192A15DEFC52EDD24DA940C970CF464
:1026D000ADC04CE050E0BE016F5F7F4FC8010E946B
:1026E000DA0E8B819C819827892798279A8B898B72
:1026F000F7014681578129813A814217530709F032
:10270000E7C097FFE5C08F7092703BEFC32EDD24CA
:10271000DA94892B09F08AC06F8078847624672444
:1027200076242AEFC22EDD24DA946114710409F4B0
:102730007DC0D12CC12C8D819E8198278927982717
:10274000C816D906F8F441E050E0BE01635F7F4F40
:10275000C8010E94DA0E4D85442331F050E070E04C
:1027600060E0C8010E94DA0E8D858111ECCF44E053
:1027700050E070E060E0C8010E94DA0EFFEFCF1A6F
:10278000DF0AD9CF912C812C41E050E0BE016D5E73
:102790007F4FC8010E94DA0E4B89842F807C09F09C
:1027A0006CC0442331F050E070E060E0C8010E944A
:1027B000DA0E8B898111E8CF42E050E0BE01615F03
:1027C0007F4FC8010E94DA0E42E050E0BE01635F15
:1027D0007F4FC8010E94DA0E44E050E070E060E0F4
:1027E000C8010E94DA0E42E050E0BE016F5E7F4FEA
:1027F000C8010E94DA0E8F85988949895A89811506
:10280000914009F043C0CD84DE84DC24CD24DC2457
:1028100081E0C816D104D1F54115544009F04AC0F1
:1028200044E050E0B201C8010E94DA0E21E0A21A91
:10283000B10809F46CCEFFEFCF16DF0609F067CEC2
:102840000E9428013B014C01C8010E94B7111816D3
:1028500019060CF421CF0E9428016619770988090E
:102860009909693873418105910548F562E370E083
:1028700080E090E00E94F600E7CF41E050E070E099
:1028800060E0C8010E94DA0E1B8A93CF54274527C7
:10289000542770E060E0C8010E94DA0EFFEF8F1A43
:1028A0009F0A6814790409F06FCF96EFC92EDD24D2
:1028B000DA94BCCFE7EFCE2EDD24DA94B7CFCC2468
:1028C000CA94DC2CB3CF6EEFC62EDD24DA94AECFE3
:1028D0004CEFC42EDD24DA94A9CF8EEFC82EDD2470
:1028E000DA9430CED12CC12C2DCECF92DF92EF9244
:1028F000FF920F931F93CF93DF93CDB7DEB7AF97C0
:102900000FB6F894DEBF0FBECDBF7C016A010EE8A2
:1029100011E01A8309831C861B8688EE93E0A0E0F1
:10292000B0E08D879E87AF87B88B82E591E09A876C
:102930008987188F0F8B198E1A8E1B8E1C8E84E040
:1029400089A31BA70AA71CA61DA61EA61FA68091C9
:102950000B0390910C03A0910D03B0910E038EA375
:102960009FA3A8A7B9A78B839C83AD83BE8318863A
:102970001F82AE01465D5F4FCE0101960E94151287
:1029800081309105B1F4D701ED91FC910488F5896E
:10299000E02D1DA30CA38CA59DA5AEA5BFA58EA360
:1029A0009FA3A8A7B9A7A601BE016C5D7F4FC70171
:1029B0000995AF960FB6F894DEBF0FBECDBFDF917D
:1029C000CF911F910F91FF90EF90DF90CF900895DE
:1029D000CF92DF92EF92FF920F931F93CF93DF93EB
:1029E000CDB7DEB7AF970FB6F894DEBF0FBECDBF41
:1029F0008C016B017A018EE891E09A8389831B82B6
:102A00001C821D821E821C861B8648EE53E060E0FD
:102A100070E04D875E876F87788B22E531E03A87DB
:102A20002987988F8F8B198E1A8E1B8E1C8E24E00F
:102A300029A39BA78AA71CA61DA61EA61FA6D80170
:102A40001C968C91843060F40E946B07882321F0DF
:102A5000F80184850E94420784E0D8011C968C937B
:102A600080910B0390910C03A0910D03B0910E0384
:102A70008EA39FA3A8A7B9A78B839C83AD83BE8396
:102A800018861F82AE01465D5F4FB601CE010196EA
:102A90000E9415120097C1F0D801ED91FC910684B7
:102AA000F785E02D8EE891E09DA38CA38CA59DA5D4
:102AB000AEA5BFA58EA39FA3A8A7B9A7A701BE01D6
:102AC0006C5D7F4FC8010995AF960FB6F894DEBFD5
:102AD0000FBECDBFDF91CF911F910F91FF90EF906F
:102AE000DF90CF900895EF92FF920F931F93CF93B3
:102AF000DF9300D000D0CDB7DEB78C017B01FB01A6
:102B000084858430A8F08EE891E0F8019183808379
:102B10001282138214821582C8010F900F900F90B9
:102B20000F90DF91CF911F910F91FF90EF9008953B
:102B300080E591E00E94980024E030E0AE014F5F14
:102B40005F4F6CE070E0F70184850E949D088EE87D
:102B500091E0F8019183808389819A81AB81BC8166
:102B600082839383A483B583D7CF0C94A31B1F9236
:102B70000F920FB60F9211242F933F938F939F9331
:102B8000AF93BF938091210290912202A0912302E2
:102B9000B09124023091200223E0230F2D3758F505
:102BA0000196A11DB11D20932002809321029093D4
:102BB0002202A0932302B0932402809125029091D7
:102BC0002602A0912702B09128020196A11DB11DF5
:102BD0008093250290932602A0932702B0932802A7
:102BE000BF91AF919F918F913F912F910F900FBE09
:102BF0000F901F90189526E8230F0296A11DB11D76
:102C0000D2CF1F920F920FB60F9211242F933F93A2
:102C10004F935F936F937F938F939F93AF93BF93E4
:102C2000EF93FF93E0910201F09103010995FF9169
:102C3000EF91BF91AF919F918F917F916F915F9134
:102C40004F913F912F910F900FBE0F901F901895AD
:102C50001F920F920FB60F9211242F933F934F9311
:102C60005F936F937F938F939F93AF93BF93EF93F4
:102C7000FF93E0910001F09101010995FF91EF911F
:102C8000BF91AF919F918F917F916F915F914F9184
:102C90003F912F910F900FBE0F901F9018951F928C
:102CA0000F920FB60F9211242F933F934F935F9380
:102CB0006F937F938F939F93AF93BF93EF93FF9304
:102CC0008EE492E00E94BA01FF91EF91BF91AF9123
:102CD0009F918F917F916F915F914F913F912F9134
:102CE0000F900FBE0F901F9018951F920F920FB666
:102CF0000F9211242F938F939F93EF93FF93E09163
:102D00005E02F0915F028081E0916402F0916502C1
:102D100082FD1BC09081809167028F5F8F7320912D
:102D20006802821741F0E0916702F0E0E25BFD4F3C
:102D3000958F80936702FF91EF919F918F912F91D3
:102D40000F900FBE0F901F9018958081F4CFEEE486
:102D5000F2E01382128288EE93E0A0E0B0E0848378
:102D60009583A683B7838CE791E09183808385EC7C
:102D700090E09587848784EC90E09787868780EC45
:102D800090E0918B808B81EC90E0938B828B82EC36
:102D900090E0958B848B86EC90E0978B868B118EE0
:102DA000128E138E148EEBEEF2E08EE891E091839A
:102DB00080831282138214821582E1EFF2E0918304
:102DC00080831282138214821582E7EFF2E09183EE
:102DD00080831282138214821582EDEFF2E09183D8
:102DE00080831282138214821582E3E0F3E09183E0
:102DF00080831282138214821582EFE0F3E09183C4
:102E000080831282138214821582E9E0F3E09183B9
:102E100080831282138214821582E5E1F3E09183AC
:102E200080831282138214821582EBE1F3E0918396
:102E300080831282138214821582E7E2F3E0918389
:102E400080831282138214821582E1E2F3E01382FE
:102E5000128284E991E09183808380E590E09583FC
:102E600084830895CF93DF93CDB7DEB765970FB610
:102E7000F894DEBF0FBECDBF789484B5826084BD68
:102E800084B5816084BD85B5826085BD85B581606E
:102E900085BD80916E00816080936E0010928100EC
:102EA00080918100826080938100809181008160A7
:102EB0008093810080918000816080938000809168
:102EC000B10084608093B1008091B00081608093F4
:102ED000B00080917A00846080937A0080917A00BB
:102EE000826080937A0080917A00816080937A007A
:102EF00080917A00806880937A001092C10062E02D
:102F000082E00E94A00086E0E6E1F1E0DE0150965A
:102F100001900D928A95E1F787E096E09093010188
:102F200080930001809169008C7F826080936900AA
:102F3000E89A8EE891E09A83898380EC8B8388EA13
:102F40008C8381E08D8388EC8E83BE016F5F7F4F21
:102F5000CE0140960E949A0F81E293E00E94180BE6
:102F6000E0915E02F0915F0282E08083E0915A027C
:102F7000F0915B021082E0915C02F0915D028FECB7
:102F8000808310926602E0916202F091630286E013
:102F90008083E0916002F091610280818061808392
:102FA000E0916002F0916102808188608083E0910D
:102FB0006002F0916102808180688083E09160020C
:102FC000F091610280818F7D80830E94070680E0FE
:102FD000A82E80E0B82E04E610E0C12CD12C76019A
:102FE0000E94870040900401509005016090060106
:102FF00070900701BC01990F880B990B0E94DA1998
:1030000020E030E040EA50E40E948F1A20E030ECEB
:103010004FE754E40E943719A30192010E94C5189A
:103020002DEC3CEC4CEC5DE30E9437199B01AC01AC
:10303000C701B6010E94C6186B017C01015011093D
:1030400079F662E070E080E090E00E94F60020E017
:1030500030E048EC52E4C701B6010E9437196B0119
:103060007C0122E0BC01A6018EE492E00E940D05E5
:103070006CEA71E08EE492E00E946C0461E273E01D
:10308000CE0101960E94330D8D85843090F068EE5C
:1030900073E080E090E00E94F600A114B10409F40E
:1030A0009ACF0E94A601882309F495CF0E940000C0
:1030B00092CF11E0CE0101960E949907882399F1E1
:1030C000CE0101960E94030E892BA1F3CE01019639
:1030D0000E94230F8A3091F5112359F367ED71E0B7
:1030E000CE0101960E94F30567EE71E0CE010196D4
:1030F0000E94F3056CEA71E0CE0101960E946C0417
:1031000066E072E0CE0101960E946C0422E0B701F5
:10311000A601CE0101960E940D0563E172E0CE0189
:1031200001960E94F30561E070E080E090E00E946B
:10313000F600CE0101960E94BB07A9CF8D3009F49D
:10314000B9CF10E0B7CFA1E21A2EAA1BBB1BFD011D
:103150000DC0AA1FBB1FEE1FFF1FA217B307E40776
:10316000F50720F0A21BB30BE40BF50B661F771FCE
:10317000881F991F1A9469F76095709580959095AE
:103180009B01AC01BD01CF0108955058BB27AA2770
:103190000E94DD180C94501A0E94421A38F00E94C6
:1031A000491A20F039F49F3F19F426F40C943F1A81
:1031B0000EF4E095E7FB0C94391AE92F0E94611A8E
:1031C00058F3BA17620773078407950720F079F45C
:1031D000A6F50C94831A0EF4E0950B2EBA2FA02DB1
:1031E0000B01B90190010C01CA01A0011124FF27B4
:1031F000591B99F0593F50F4503E68F11A16F040AF
:10320000A22F232F342F4427585FF3CF46953795AD
:103210002795A795F0405395C9F77EF41F16BA0B72
:10322000620B730B840BBAF09150A1F0FF0FBB1F20
:10323000661F771F881FC2F70EC0BA0F621F731F69
:10324000841F48F4879577956795B795F7959E3FC6
:1032500008F0B0CF9395880F08F09927EE0F979557
:10326000879508950E94151A08F481E008950E9438
:103270004B190C94501A0E94491A58F00E94421A95
:1032800040F029F45F3F29F00C94391A51110C9445
:10329000841A0C943F1A0E94611A68F39923B1F3BF
:1032A000552391F3951B550BBB27AA27621773076C
:1032B000840738F09F5F5F4F220F331F441FAA1F00
:1032C000A9F335D00E2E3AF0E0E832D091505040BC
:1032D000E695001CCAF72BD0FE2F29D0660F771F6A
:1032E000881FBB1F261737074807AB07B0E809F050
:1032F000BB0B802DBF01FF2793585F4F3AF09E3FD5
:10330000510578F00C94391A0C94841A5F3FE4F359
:10331000983ED4F3869577956795B795F7959F5F17
:10332000C9F7880F911D9695879597F90895E1E063
:10333000660F771F881FBB1F621773078407BA07C2
:1033400020F0621B730B840BBA0BEE1F88F7E0951D
:1033500008950E94691A88F09F5798F0B92F99270D
:10336000B751B0F0E1F0660F771F881F991F1AF070
:10337000BA95C9F714C0B13091F00E94831AB1E038
:1033800008950C94831A672F782F8827B85F39F037
:10339000B93FCCF3869577956795B395D9F73EF409
:1033A00090958095709561957F4F8F4F9F4F0895B1
:1033B000E89409C097FB3EF49095809570956195CF
:1033C0007F4F8F4F9F4F9923A9F0F92F96E9BB2785
:1033D0009395F695879577956795B795F111F8CF01
:1033E000FAF4BB0F11F460FF1BC06F5F7F4F8F4F6C
:1033F0009F4F16C0882311F096E911C0772321F062
:103400009EE8872F762F05C0662371F096E8862FF9
:1034100070E060E02AF09A95660F771F881FDAF750
:10342000880F9695879597F90895990F0008550F7D
:10343000AA0BE0E8FEEF16161706E807F907C0F03A
:1034400012161306E407F50798F0621B730B840B42
:10345000950B39F40A2661F0232B242B252B21F41C
:1034600008950A2609F4A140A6958FEF811D811DBC
:10347000089597F99F6780E870E060E008959FEFF6
:1034800080EC089500240A941616170618060906FB
:10349000089500240A9412161306140605060895CA
:1034A000092E0394000C11F4882352F0BB0F40F452
:1034B000BF2B11F460FF04C06F5F7F4F8F4F9F4F92
:1034C000089557FD9058440F551F59F05F3F71F014
:1034D0004795880F97FB991F61F09F3F79F087957B
:1034E0000895121613061406551FF2CF4695F1DF04
:1034F00008C0161617061806991FF1CF8695710594
:10350000610508940895E894BB2766277727CB01C7
:1035100097F908950E94151A08F48FEF08950E94F4
:10352000A21A0C94501A0E94421A38F00E94491AAA
:1035300020F0952311F00C94391A0C943F1A1124A1
:103540000C94841A0E94611A70F3959FC1F3950F31
:1035500050E0551F629FF001729FBB27F00DB11D17
:10356000639FAA27F00DB11DAA1F649F6627B00DA7
:10357000A11D661F829F2227B00DA11D621F739F90
:10358000B00DA11D621F839FA00D611D221F749F9E
:103590003327A00D611D231F849F600D211D822FE5
:1035A000762F6A2F11249F5750409AF0F1F088230C
:1035B0004AF0EE0FFF1FBB1F661F771F881F915039
:1035C0005040A9F79E3F510580F00C94391A0C9495
:1035D000841A5F3FE4F3983ED4F386957795679518
:1035E000B795F795E7959F5FC1F7FE2B880F911D63
:1035F0009695879597F908950E94151A880B990B4F
:103600000895EE0FFF1F0590F491E02D09940F939C
:103610001F93CF93DF938230910510F482E090E006
:10362000E0912F03F091300330E020E0B0E0A0E023
:10363000309799F42115310509F44AC0281B390B3C
:1036400024303105D8F58A819B816115710589F196
:10365000FB0193838283FE0111C04081518102816D
:10366000138148175907E0F04817590799F4109744
:1036700061F012960C93129713961C933296CF0119
:10368000DF91CF911F910F91089500932F03109315
:103690003003F4CF2115310551F04217530738F0AC
:1036A000A901DB019A01BD01DF01F801C1CFEF01E2
:1036B000F9CF9093300380932F03CDCFFE01E20F1B
:1036C000F31F819391932250310939832883D7CFF7
:1036D00020912D0330912E03232B41F420910C01D6
:1036E00030910D0130932E0320932D0320910A0178
:1036F00030910B012115310541F42DB73EB74091B2
:103700000E0150910F01241B350BE0912D03F09118
:103710002E03E217F307A0F42E1B3F0B28173907DF
:1037200078F0AC014E5F5F4F2417350748F04E0F1D
:103730005F1F50932E0340932D03819391939FCF4E
:10374000F0E0E0E09CCFCF93DF930097E9F0FC013D
:10375000329713821282A0912F03B0913003ED01B2
:1037600030E020E01097A1F420813181820F931F77
:1037700020912D0330912E032817390709F061C0DD
:10378000F0932E03E0932D03DF91CF910895EA018A
:10379000CE17DF07E8F54A815B819E01411551058F
:1037A000B1F7E901FB83EA8349915991C40FD51F11
:1037B000EC17FD0761F4808191810296840F951FBB
:1037C000E90199838883828193819B838A83F0E0D6
:1037D000E0E012968D919C9113970097B9F52D9189
:1037E0003C911197CD010296820F931F20912D03DA
:1037F00030912E032817390739F6309751F510927A
:10380000300310922F03B0932E03A0932D03BCCF4F
:10381000D383C28340815181840F951FC817D90774
:1038200061F44E5F5F4F88819981480F591F518322
:1038300040838A819B81938382832115310509F01E
:10384000B0CFF0933003E0932F039ECFFD01DC0156
:10385000C0CF13821282D7CFDC0101C06D934150DB
:103860005040E0F70895F894FFCF34013401000090
:10387000204000C000003103800001005E00000015
:10388000DEADBEEFFEED00000000DF038C0C2C0C63
:10389000170C030E230F8308710AE8143D0FBB07B2
:1038A000990708041004B51505040304D403F903AB
:1038B000700F7315460FF50300000000A803A70C56
:1038C00069049F009B00F90E7408F30A89095A07DE
:1038D00012047514F407B711DA0E610451044D0493
:1038E000490400000000DC013C01690129029A0141
:1038F00078018C0100000000C70400000000BE0336
:10390000B20D69046804180B75076E616E00696E6C
:1039100066006F7666000D0A0043616C6962726131
:1039200074696E6700456C656374726963616C20CD
:103930004F666673657420566F6C74616A653A20D1
:1039400000485454502F312E3120323030204F4B0C
:1039500000436F6E74656E742D547970653A206102
:1039600070706C69636174696F6E2F6A736F6E003B
:103970007B2263757272656E74223A20007D0000AE
:107E0000112484B714BE81FFF0D085E080938100F7
:107E100082E08093C00088E18093C10086E0809377
:107E2000C20080E18093C4008EE0C9D0259A86E02C
:107E300020E33CEF91E0309385002093840096BBD3
:107E4000B09BFECF1D9AA8958150A9F7CC24DD24C4
:107E500088248394B5E0AB2EA1E19A2EF3E0BF2EE7
:107E6000A2D0813461F49FD0082FAFD0023811F036
:107E7000013811F484E001C083E08DD089C08234E0
:107E800011F484E103C0853419F485E0A6D080C0E4
:107E9000853579F488D0E82EFF2485D0082F10E0AE
:107EA000102F00270E291F29000F111F8ED06801E7
:107EB0006FC0863521F484E090D080E0DECF843638
:107EC00009F040C070D06FD0082F6DD080E0C81688
:107ED00080E7D80618F4F601B7BEE895C0E0D1E017
:107EE00062D089930C17E1F7F0E0CF16F0E7DF06D8
:107EF00018F0F601B7BEE89568D007B600FCFDCFD4
:107F0000A601A0E0B1E02C9130E011968C91119780
:107F100090E0982F8827822B932B1296FA010C0160
:107F200087BEE89511244E5F5F4FF1E0A038BF0790
:107F300051F7F601A7BEE89507B600FCFDCF97BE46
:107F4000E89526C08437B1F42ED02DD0F82E2BD052
:107F50003CD0F601EF2C8F010F5F1F4F84911BD097
:107F6000EA94F801C1F70894C11CD11CFA94CF0C13
:107F7000D11C0EC0853739F428D08EE10CD085E9AC
:107F80000AD08FE07ACF813511F488E018D01DD067
:107F900080E101D065CF982F8091C00085FFFCCF94
:107FA0009093C60008958091C00087FFFCCF809118
:107FB000C00084FD01C0A8958091C6000895E0E648
:107FC000F0E098E1908380830895EDDF803219F02E
:107FD00088E0F5DFFFCF84E1DECF1F93182FE3DFCA
:107FE0001150E9F7F2DF1F91089580E0E8DFEE27F6
:047FF000FF270994CA
:027FFE00040479
:00000001FF
